:020000040001F9
:10C00000A85300208DC4010095C4010097C401000D
:10C0100099C401009BC401009DC401000000000000
:10C020000000000000000000000000009FC40100AC
:10C03000A1C4010000000000A3C40100A5C40100C8
:10C04000A7C40100A7C40100EDCA0100A7C40100F4
:10C05000A7C40100A7C4010091C5010061C7010088
:10C06000B1CA0100C5CA0100D9CA0100A7C40100B4
:10C07000A7C40100A7C40100A7C40100A7C4010010
:10C08000A7C401003DC70100A7C40100A7C4010067
:10C090001DC80100A7C4010021C80100A7C40100F8
:10C0A000A7C40100A7C40100A7C40100A7C40100E0
:10C0B000A7C40100A7C401000000000000000000A8
:10C0C000A7C40100A7C40100A7C40100A7C40100C0
:10C0D000A7C40100A7C40100A7C40100000000001C
:10C0E0000000000000000000000000000000000050
:10C0F0000000000000000000000000000000000040
:10C10000000000000000000000000000000000002F
:10C11000000000000000000000000000000000001F
:10C40000DFF80CD000F086F800480047290E020043
:10C41000A8530020401E00BF00BF00BF00BF00BFE8
:10C4200000BF00BF00BF00BF00BF00BF00BF00BF14
:10C4300000BF00BF00BF00BF00BF00BF00BF00BF04
:10C4400000BF00BF00BF00BF00BF00BF00BF00BFF4
:10C4500000BF00BF00BF00BF00BF00BF00BF00BFE4
:10C4600000BF00BF00BF00BF00BF00BF00BF00BFD4
:10C4700000BF00BF00BF00BF00BF00BF00BF00BFC4
:10C4800000BF00BF00BFC5D170470000064880470D
:10C4900006480047FEE7FEE7FEE7FEE7FEE7FEE7A9
:10C4A000FEE7FEE7FEE7FEE745C8010001C4010024
:10C4B00040EA01039B0703D009E008C9121F08C026
:10C4C000042AFAD203E011F8013B00F8013B521EA6
:10C4D000F9D27047D2B201E000F8012B491EFBD21D
:10C4E00070470022F6E710B513460A46044619467F
:10C4F000FFF7F0FF204610BD30B50446002003468C
:10C5000000E05B1C934203D2E05CCD5C401BF8D0A2
:10C5100030BD0000064C074D06E0E06840F0010326
:10C5200094E8070098471034AC42F6D3FFF76CFF4D
:10C53000C8590200E859020070B58C1810F8015B68
:10C5400015F0070301D110F8013B2A1106D110F8AC
:10C55000012B03E010F8016B01F8016B5B1EF9D1B0
:10C560002B0705D40023521E0DD401F8013BFAE736
:10C5700010F8013BCB1A921C03E013F8015B01F8A1
:10C58000015B521EF9D5A142D8D3002070BD000036
:10C590002DE9FC5F0025DFF83491A8464FF4807642
:10C5A00001242F46304605F07BFB38B1D9F804034F
:10C5B000204203D0304605F069FB2543361D640058
:10C5C0007F1CB6B2082FEDD34FF4BE74204605F0A1
:10C5D00067FB38B1204605F059FB3D4845F0004562
:10C5E000D0F800803B4E15F0FF0F14D00127002437
:10C5F0002F420CD009EB8401D1F81005D1F81015A9
:10C60000C0F3042056F82420C1F3014190477F0075
:10C61000641C082CECD3002D56DA00200190401E3B
:10C620004CE0701910F8501F90F9000021F0C00480
:10C63000401C38D0012000FA04FA1AEA090F32D05F
:10C640004FEA911B204602F0CDFB56F820000090E7
:10C6500010B9BBF1030F26D15146BBF1030F02D134
:10C66000019808430190A00000F1A040D0F8000715
:10C670001AEA080FC0F3014002D0022802D012E0EB
:10C68000032810D1BBF1030F07D102281AD00221D1
:10C69000204605F0ECFA7F1CFFB2009818B1009A12
:10C6A0005946204690476D1C042DBAD3002F0BD05D
:10C6B00007480068404507D080460198002781461A
:10C6C0003D46AEE70321E3E7BDE8FC9F0060004084
:10C6D000100500509C30002000F01F020121914005
:10C6E0004009800000F1E020C0F88012704700F09F
:10C6F0001F02012191404009800000F1E020C0F8B4
:10C700000011704700F01F02012191404009800094
:10C7100000F1E020C0F8001270474907090E002818
:10C7200006DA00F00F0000F1E02080F8141D7047D9
:10C7300000F1E02080F80014704700000748002155
:10C74000C0F84011C0F84411C0F84811C0F84C11AD
:10C75000C0F80011C0F8041108F078BC00100140C6
:10C760002DE9FE434FF4827005F0DCFADFF89C807F
:10C77000274C00264FF00109A8B1264940460E601B
:10C780008DF800606168019123490968ADF80810CF
:10C79000E168A1B16160A18A2181E660C0F80090E2
:10C7A0002168684688474FF48A7005F0BBFA48B1A3
:10C7B00018481030066084F82760BDE8FE8384F8CE
:10C7C0002760EDE727691EE0B7FA87F04FF00041D8
:10C7D000C1408F434FF48C7101EB8005284605F072
:10C7E000A1FA80B145F80860A5F58C75E8088DF8C8
:10C7F000040045F38000401C8DF800908DF8050082
:10C80000216868468847002FDED1D6E700700040D7
:10C8100070300020047100403476004008F0B2BB54
:10C82000074810B5406830B18047002807D0BDE800
:10C83000104000F033BCBDE8104003F005BF10BD50
:10C840002421002070B58D480023021D0178101DA1
:10C850000124062907D115782D0704D10578C5F3E1
:10C860000315032D02D0062904D00FE0854E844D18
:10C8700075670EE015782D0708D10578C5F3031507
:10C88000032D06D0042D04D0052D02D0062909D091
:10C8900010E04FF08055D5F844527B4EC5F3423539
:10C8A000356002E015782D0704D10578C5F303152E
:10C8B000032D02D0062906D011E0744D2E6826F013
:10C8C00080762E600EE015782D0708D10578C5F327
:10C8D0000315032D06D0042D04D0052D02D0062902
:10C8E0000AD011E04FF08045C5F80C31C5F8103181
:10C8F000654D2D1F2B6002E015782D0704D10578BA
:10C90000C5F30315032D02D0062905D00CE05E4ABD
:10C910000321643211600AE015782D0704D10578EF
:10C92000C5F30315032D02D006290DD06AE0584A3D
:10C9300005211160564978310C60554908310B606A
:10C940003F21121D116002E0117809075AD10078C9
:10C95000C0F30310052855D14E4800684E490860C1
:10C960004C48001D0068091D08604A4808300068EE
:10C97000091D086047480C300068091D08604548DB
:10C9800010300068091D0860424814300068091D15
:10C9900008604048183000683F49203108603D4831
:10C9A0001C300068091D08603A4820300068091DE5
:10C9B0000860384824300068091D08603548283070
:10C9C0000068091D086033482C300068091D0860A4
:10C9D0003048303000683049403108602D483430EC
:10C9E0000068091D08602B4838300068091D086080
:10C9F00028483C300068091D08602648403000681F
:10CA0000091D086021487438016841F47001016013
:10CA1000BFF34F8FBFF36F8F4FF01021D1F800029B
:10CA2000002803DBD1F80402002822DA1B4A146034
:10CA30001B480468002CFCD01524C1F8004205688E
:10CA4000002DFCD0C1F8044201680029FCD013601D
:10CA500001680029FCD0BFF34F8F0C48F038016803
:10CA6000104A01F4E06111430160BFF34F8F00BF32
:10CA7000FDE70E490C48086070BD0000E00F00F0B3
:10CA80000DF0ADBA00C007403C050040FCED00E0F1
:10CA9000105600400404001020C5004004E5014089
:10CAA00000E401400400FA050090D0038C2200202D
:10CAB00004220249024803F0FFBD000014310020A7
:10CAC0000080004004220249024803F0F5BD000046
:10CAD000203100200090004004220249024803F067
:10CAE000EBBD00002C31002000A000400348007F77
:10CAF00008B108F0DBBB08F055BB0000F4300020A3
:10CB000002E008C8121F08C1002AFAD17047704716
:10CB1000002001E001C1121F002AFBD17047000074
:10CB20001CB51449002004F0CDFE08B100F0B6FA9F
:10CB30001149D1E90201CDE900016946002004F064
:10CB400079FE08B100F0AAFA0C49002048700B48A1
:10CB50000121801D04F024FE08B100F09FFA07486F
:10CB60000121083004F01CFE002801D000F096FAE4
:10CB70001CBD0000C1410200D058020080200020EE
:10CB800010B550B149B102780B789A4205D106220E
:10CB9000401C491CFFF7B0FC08B1002010BD01206B
:10CBA00010BD2DE9FC5F0025168807461580406BF7
:10CBB00014468946A8464FF00C0A11234FF0020B89
:10CBC00098B101784846032E48D380F800B02288F7
:10CBD000521C92B2228083542288521C92B222802C
:10CBE00009F802102088401C20803A6BDAB12088B6
:10CBF000494600F11205B54230D80B542088102365
:10CC0000401C80B220800B542088401C20800F20C4
:10CC10002388155C401ECD54238840B25B1C2380C2
:10CC20000028F5DA454697F82E0030B13346224603
:10CC3000494603F0EDFD050011D197F82D0030B104
:10CC400032462146484601F01FFB050007D1B8785F
:10CC500020B32088C846001DB04202D95046BDE826
:10CC6000FC9F684679DF0028F9D12188032008F865
:10CC7000010020881921401C80B2208008F8001093
:10CC80002088401C80B2208000EB0801BDF8000025
:10CC900008F078FB0146208808442080F878B8B175
:10CCA000228897F90310D31C4846B342D6D800F81F
:10CCB00002B022880123521C92B22280835422881F
:10CCC000521C92B2228009F802102088401C208059
:10CCD0007868B8B1218890F90020CB1C4846B3424F
:10CCE000BCD800F801B021880A23491C89B22180F0
:10CCF00043542188491C89B2218009F801202088E9
:10CD0000401C2080388950B1CDE900464B460622B0
:10CD1000022107F1080008F0AAFB05009FD1388A1C
:10CD200050B1CDE900464B460722032107F1100020
:10CD300008F09DFB050092D1388B50B1CDE900463B
:10CD40004B461522142107F1180008F090FB05004E
:10CD500085D1386A30B133462246494602F0FAF8A6
:10CD60000500DBD1786A30B133462246494604F0EB
:10CD7000F1F80500D2D197F82C0038B1334622469D
:10CD80004946384607F0CCFC0500C7D1387838B1A1
:10CD9000334622464946384604F025F90500BDD100
:10CDA00028465CE710B501220221002001F086FD33
:10CDB00008B1072810D107220221012001F07EFDD1
:10CDC00008B1072808D100210A22084601F076FDA3
:10CDD00008B1072800D1002010BD10B5032000F0D5
:10CDE00025FF002803D0BDE8104000F057B910BD62
:10CDF00070B58CB015460E4600236C46C3F10F018A
:10CE0000415CE1545B1C102BF8D30D2104F11000A0
:10CE1000FFF767FB0020C0F10F02315C2244401C89
:10CE200011740328F7D368464DDF0020C0F10F01CD
:10CE3000214491F820102954401C0328F6D30CB04B
:10CE400070BD70B590B005461C216846FFF749FBE0
:10CE50009DF80000002440F004008DF800000394C9
:10CE600001268DF8366042F60620ADF834000C94A9
:10CE70009DF83000019420F0FF008DF830009DF8FF
:10CE80003100049420F00F00401C20F0F00020300E
:10CE90008DF831009DF83200059420F00600801CCA
:10CEA00020F019008DF832000694142107A8FFF72E
:10CEB00018FB0DA807900CA88DF838400890ADF825
:10CEC00024600EA8ADF82640ADF828600B90A88825
:10CED000AB1D07AA6946A2DF10B070BDF0B58FB0D8
:10CEE0000D4606461C216846FFF7FBFA00249DF814
:10CEF0000000039440F00A008DF80000012701941F
:10CF00008DF8367042F60620049405940694ADF828
:10CF100034000C94687A8DF83000A87A8DF83100CE
:10CF20009DF83200142120F00600801C20F019002A
:10CF30008DF8320007A8FFF7D4FA287A8DF8380068
:10CF40000DA807900CA80890ADF824700EA8ADF8B5
:10CF50002640ADF828700B90308906F10A0307AA25
:10CF60006946A2DF0FB0F0BD10B528B1012805D089
:10CF700002280CD1102002E0112000E00D2001F069
:10CF8000B7FC002803D0BDE8104000F087B810BD02
:10CF900010B5124CA08A411CA182618A884218D225
:10CFA0000F480068800F10F0010F12D0617904F172
:10CFB0001900405C10B101F0C7FE01E001F0B6FEBF
:10CFC0006079401CC0B26071042801D100206071FA
:10CFD00010BD01F0ABFE608AA08210BD9C20002035
:10CFE0001005005070B50024064D06E06868012168
:10CFF00010F8340004F0A6F8641C28788442F5D3B5
:10D00000002070BD34220020F8B515460C460646B7
:10D01000052A01D20720F8BD04F076F918B904F00A
:10D0200049F90028F7D1104900204E600C70C1E981
:10D0300002500E4D08610DE006EBC40069680091D6
:10D0400081788DF801100078094A694604F0CCF81F
:10D050000028E0D1641EE4B2EED2BDE8F840054AF3
:10D060000021024800F074BA34220020A0590200C6
:10D0700095FF010071F10100BFF34F8F0548016872
:10D08000054A01F4E06111430160BFF34F8F00BF17
:10D09000FDE700000CED00E00400FA050EB50021EC
:10D0A0000091CDE901106A4644F20100FFF7E4FF68
:10D0B0000EBD000030B542680B4C1379E15C0120D5
:10D0C000FF290ED0FE290DD012684FF4A86505EB9C
:10D0D00081015158054A52F82320914202D1FF2084
:10D0E000E054002030BD0000832200209033002057
:10D0F00003681B8B9BB253436422B3FBF2F292B2E0
:10D10000AFF300802DE9F04188460446056801EB45
:10D11000480005EB800795F823001646022802D048
:10D120000820BDE8F0817868B04205D1E969E1B333
:10D130006068007988473EE02046FFF7BBFF08B1F2
:10D140001120EEE761681D4AFE2009795054796884
:10D1500011B1A86981420FD316B1A869B04205D8B0
:10D1600032464146204606F027FC13E0324641464F
:10D17000204606F059FC0DE00EB1B04205D832460B
:10D180004146204606F0DCFC04E03246414620469B
:10D1900006F05EFD2068C06938B16068074A022168
:10D1A0000079D21C02EB400200E004E002F8081013
:10D1B000606804F076FC0020B3E7000083220020C2
:10D1C0002DE9F84F05688A46064601EB4A0795F8AF
:10D1D00023009946904605EB870410B10820BDE86E
:10D1E000F88F4FF0000B2E48C4F804B084F80A9072
:10D1F000006800900A21306801EB8701405C48B16B
:10D200005FF000008DF801006946104604F086F8D2
:10D21000A8B901E00120F5E745F82780012707FAC2
:10D2200008F0B9F1000F01D01E4901E01D49091FA6
:10D23000086000256019083004F038F908B10420AE
:10D24000CDE76D1CEDB2022DF4D3207A04F082F903
:10D25000607A04F07FF9206804F0BCF80546514676
:10D26000706804F00FFC0146207A2A4604F054F955
:10D27000206804F0AFF805460221706804F002FC53
:10D280000146607A2A4604F047F9E7727168064A57
:10D29000097902EB410202F80AB000209FE7000082
:10D2A000BC5902000C050050862200202DE9F041F7
:10D2B0000646D6E9007004F005FC0221706804F00F
:10D2C000E9FB0024381990F8200004F043F9641CAD
:10D2D000E4B2022CF6D300254FF0010805EB45001F
:10D2E00007EB8004E17AA1B10A22316802EB8000E9
:10D2F000085C0028207808FA00F112D00A48016082
:10D30000206804F071F8207A04F024F9607A04F0BF
:10D3100021F96D1CEDB2022DE0D387F82380BDE822
:10D32000F0810148001FEAE70C0500502DE9F047A5
:10D330000025DFF86C9007680446A846626805EB94
:10D34000450007EB8006137909EB430202F80580DC
:10D35000F17A71B10A22216802EB8000085CE0B129
:10D360000021306804F06CF8306804F04FF8C6F81B
:10D3700004806D1C022DE1D36168094AFF20097900
:10D38000D21E5054606804F068FB606804F0A8FB8B
:10D39000022087F82300BDE8F0870121E1E70000C3
:10D3A000862200202DE9F74F84B00E00054607D0F5
:10D3B0002C6894F8230028B1082007B0BDE8F08F4E
:10D3C0000B20FAE704F0E0F918B1852801D0042019
:10D3D000F3E703F099FF20B903F06CFF08B10320D5
:10D3E000EBE75648DFF858A1002200784FF0010B18
:10D3F000C0F30310032823D08AF800B0FF2184F87B
:10D40000201084F8211084F82210002089464FF063
:10D41000FF3C00BF00EB400104EB8107401CFA72A7
:10D4200087F8089087F80990C0B244F821C0022814
:10D43000F0D30027E019203004F038F860B902E09A
:10D440008AF80020DAE77F1CFFB2022FF2D304F142
:10D45000220004F027F918B1284606F02BFAB6E7A7
:10D460005FF0000756F82720501C12D0F0193946FB
:10D47000037A2846FFF7A4FE5FEA000804D0284696
:10D4800006F018FA404698E7002239462846FFF78A
:10D4900039FE7F1CFFB2022FE4D3002009224FF493
:10D4A0008053316901E04908401C994201D3904200
:10D4B000F9D39AF8001009B100B90120214AD2E944
:10D4C0000112CDE901128DF8040068681E4A01A915
:10D4D00000790290686804F027FB070004D0284612
:10D4E00006F0E8F9384668E7686831690068D0F8FE
:10D4F00010050E01C640A661686804F0AEFACDF8CA
:10D5000000B05F46042332460221686804F0F6FA50
:10D510000221686804F0BEFA0698E06168680B4969
:10D52000074A0079521C41F820506968097902F8CD
:10D53000019084F8237000203FE70000E80F00F01E
:10D5400082220020BC5902005D3902009C33002079
:10D55000074B9B6823B12AB120B10068037C1BB143
:10D5600008207047072070474174426100207047CF
:10D57000482200202DE9F0478046994614460F4680
:10D5800090074FF0000634D11C4D8CB306F0D2FD4D
:10D590000320C5F81490287004F11800002107EB4F
:10D5A0004703AC6004EBC102491C167056709770BB
:10D5B000506000EBC3000329F4DBEE606E70AE70C8
:10D5C0001420FFF789F806211420FFF7A6F814208D
:10D5D000FFF78DF80A49C1F8008006211120FFF7F6
:10D5E0009CF80748001F006828610020BDE8F0870C
:10D5F00001E00720FAE7AE60FBE7000048220020C8
:10D60000081501402DE9F843DFF870900D461746E4
:10D61000D9F80810044651B34CB3052D02D20720A7
:10D62000BDE8F883606910B3607C012821D0002632
:10D6300007F0EAFED9F80810804601EBC8006946F9
:10D6400007F001FFB8B1012100F8041B0C4910C01C
:10D65000096880E8E200D9F8081001EBC8009DF8DD
:10D66000001041701420FFF74DF80020D8E7082083
:10D67000D6E72E46DCE70420D2E70000482200204F
:10D6800004150140F8B5124E0446B168E1B1DCB1B1
:10D690006069C8B10027277407F0B6FE0546B06878
:10D6A000694600EBC50007F0CEFE78B1022101709B
:10D6B0004460B0689DF8001000EBC5004170142074
:10D6C000FFF720F83846F8BD0820F8BD0420F8BD63
:10D6D0004822002030B5EFF3108172B60D4A9468ED
:10D6E000012324B10370002900D162B630BD9360DC
:10D6F0004FF0E023D3F88051074C25401560C3F864
:10D700008041D3F8844154605A17C3F88421002221
:10D710000270E8E7F0270020FC06FFBC0B498A688E
:10D72000002A11D000280FD1EFF3108072B60B68D9
:10D730004FF0E022C2F800314B68C2F804310022F9
:10D740008A60002800D162B670470000F0270020F0
:10D750000349084201D101207047002070470000B2
:10D7600000C0F0FF2DE9F043044687B0008800F0C8
:10D77000A7FC8146208802F095FE214F8046667AFC
:10D78000797B20880022A56800F0E8FCB9F1000F41
:10D7900033D06079400711D50721404605F000F9E4
:10D7A000A0B108218DF80C1021880590ADF80E105D
:10D7B000ADF8108003A801F033FE07E0F97B208864
:10D7C00000F0B8FC10B1404602F050FE03208DF886
:10D7D00000002088ADF802006079C0F380008DF869
:10D7E0000400A079C0F380008DF805008DF8065084
:10D7F0008DF80760684601F013FE07B0BDE8F083BE
:10D800009821002000B585B014216846FEF769FE16
:10D810001B48009001208DF8040000200290642035
:10D820008DF80C009DF80D00694620F00F00401C9B
:10D8300020F0F00010308DF80D009DF80E0020F063
:10D840000F00401C20F0F00010308DF80E009DF805
:10D850000F0020F0FF008DF80F009DF8100020F061
:10D860000F00401C20F0F00010308DF8100005482B
:10D8700000F0CCFA002801D0FFF710FC05B000BD85
:10D88000891D02003C2700202DE9F0430546007D5C
:10D8900093B00E460024A0B107949DF81C0020F020
:10D8A0000F00401C20F0F00010308DF81C00707B41
:10D8B0008DF81D009DF81E0020F00600801C8DF8DC
:10D8C0001E001C216846FEF70CFE9DF8000040F08B
:10D8D00002008DF80000297D11B140F0100001E038
:10D8E00020F010008DF80000019403940494287D2A
:10D8F00000B107A8CDE9050401278DF8427042F672
:10D900001920ADF840000D94B07B8DF83400F07B09
:10D910008DF835009DF83600142120F00600801C9B
:10D9200020F019008DF83600307B8DF8440008A8EF
:10D93000FEF7D7FD0DF140080DF13409ADF8287060
:10D9400011A8CDE90889ADF82A40ADF82C700C90EB
:10D95000A888AB1D08AA6946A2DF002838D1B068A4
:10D9600098B38DF8427042F60810ADF840000D945F
:10D97000307C8DF834009DF8350020F0FF008DF8E4
:10D9800035009DF8360020F00600801C20F01900BC
:10D990008DF836000EA8B16800F0FFFD0646142190
:10D9A00008A8FEF79EFDADF828600EA8CDE908890D
:10D9B000ADF82A40ADF82C600C90E88805F10E0215
:10D9C00008A9A3DF002803D101E0FFE7EC810020D4
:10D9D00013B0BDE8F08310B503F0EEFF002803D0CC
:10D9E000BDE81040FFF75ABB10BD70B50C4692B0B1
:10D9F0001F21ADF80010ADF80410002638B16A46BA
:10DA000002A9FFF7CEF8002808D102AD02E00025F8
:10DA1000ADF800606CB1E07810B1072012B070BDB5
:10DA200001AA0AA92046FFF7BCF80028F6D10AAAE5
:10DA300002E00022ADF80460BDF80400C3B2BDF8F6
:10DA40000000C1B2284672DFE8E7000070B50D465D
:10DA500004991646040040D0F6B3414800224271B2
:10DA6000C0E90331242231463E48FEF721FD00F093
:10DA7000D5F83C493431A1F11000016020318160BA
:10DA800038215C38FEF72DFD364821783838017092
:10DA9000A1788170E178C17061784170D4E9041295
:10DAA000C0E90412D4E90212C0E90212D4E9061254
:10DAB000C0E90612616AD1B100F1AC0100F1B8020F
:10DAC00041628A60636A1B880B80616A436A898845
:10DAD00099800021436A07E0FFE70E2070BD666A67
:10DAE000B668765C5654491C9E888E42F7D8A16A67
:10DAF000D9B11C4AAC32A2F10C018A608162A36ADE
:10DB00009B888B80A16A836A098819800021836AB7
:10DB100004E0A66AB668765C5654491C9E888E421C
:10DB2000F7D894F82C1080F82C10216A49B10C49D0
:10DB300014310162226A52884A80216A026A098885
:10DB40001180616821B10649891D416061684160A9
:10DB50002946BDE8704003483838FFF746BF00004B
:10DB6000382100203428002010B502881D4C102ACE
:10DB700018D00021112A1BD01B2A18D1007A0028A6
:10DB800015D16079012820D0022824D0032824D080
:10DB900004280CD12171E2680846002A07D0BDE8AC
:10DBA00010401047817D012901D18088208110BD5E
:10DBB0006170808821898842F9D1012006E02169BD
:10DBC0000029F4D0BDE810400847022000F02EF8EC
:10DBD0000028F4D110BD0320F8E7032020710420B1
:10DBE000F4E700003821002010B5022801D00328F6
:10DBF00010D1094C207800280CD0002020706079CA
:10DC000000F014F8002805D02169002902D0BDE8F1
:10DC10001040084710BD00003821002002480021B4
:10DC20008161818381777047382100202DE9F04F91
:10DC3000744C87B00026607106A8069605F01AFE9F
:10DC40000127082801D030B903E006A801F098FEAA
:10DC500018B9069808B12770C0E0FFF7DFFF6A4DDA
:10DC6000DFF8A0814FF0020A687808F118084FF039
:10DC7000030B10B16079012806D0A87858B16079FB
:10DC8000012801D002281FD1E16819B1E7700820EE
:10DC9000884700E0E6706079012806D1687840B1D5
:10DCA00008F1010005F0FCF918B16079022802D0F2
:10DCB0000AE084F805A0A87820B108F1010005F079
:10DCC000EFF908B984F805B0287B4FF0040920B9B2
:10DCD0006079032801D184F80590287E20B9607905
:10DCE000042801D166712671E16841B16079032889
:10DCF00001D0042803D1287808B16078C0B1A6709B
:10DD000018216846FEF7EDFB8DF8006001968DF84E
:10DD100008600396607901280ED0022816D03A4E8A
:10DD20002436A6F15C0703281DD004284CD13AE024
:10DD3000A77007208847E3E7ADF81260CDF80480AC
:10DD40008DF80070ADF8106027713FE0CDF80480C9
:10DD50008DF800702889ADF81200A888ADF8100081
:10DD600084F804A032E0A88AADF81200288AADF841
:10DD700010002548243007F0E1FB18B1287808B1DD
:10DD8000607810B184F804B01EE01F488DF808A038
:10DD9000039687F8039000213838FFF726FE002805
:10DDA0001DD105202BE0A88BADF81000288CADF814
:10DDB00012001548243007F0C1FB18B1287808B1CB
:10DDC000607878B184F80490607918B1684673DFA0
:10DDD000002804D1E16809B120798847002007B004
:10DDE000BDE8F08F08488DF808A0039687F80390E7
:10DDF00000213838FFF7F9FD0028F0D10620207106
:10DE0000E2E70000382100203428002038B50D4614
:10DE100004001BD0D5B1286820604FF6FF706082E7
:10DE200028792075FF20207401208DF8020041F62A
:10DE30000F00ADF80000221D69460120A0DF002878
:10DE400003D129462046FFF71FFD38BD0E2038BDFF
:10DE500008B5002821D000291FD00A88102A17D021
:10DE6000112A17D0502A18D1027D002A15D031F876
:10DE7000062F43899A4210D14A89022A0DD102689D
:10DE8000002A0AD0097B11F0010F07D0002106E01B
:10DE9000898801E04FF6FF71418208BD01218DF8AC
:10DEA00000106946904708BD70B5054601461C2222
:10DEB0000F48FEF7FDFA0F4C00262670286830B197
:10DEC000016861604068A060201D7ADF02E00948B7
:10DED000001D7BDF00280AD14FF6FF70608066705E
:10DEE000BDE87040044A00210448FFF731BB70BD13
:10DEF0002029002058210020915302001C590200C3
:10DF000070B51E4C068800251B49E289102E15D0DD
:10DF10001B4B112E1CD0122E29D0502E17D130F8A9
:10DF2000061F914213D14189022910D1007B10F0C4
:10DF3000010F11D0BDE8704001F052B883884B80CA
:10DF40008369CB60C06908614D70002AF2D070BD52
:10DF50004FF6FF7048804D701868FFF793FB00285C
:10DF6000F5D0A1690029F2D0BDE870400847826869
:10DF7000CA60C0680861DDE7582100202029002020
:10DF80001C59020002490A7D091D06F011BA000061
:10DF90003C29002002460248C17D001D06F0F5B96B
:10DFA0003C29002002460248017E001D06F0EDB922
:10DFB0003C2900202DE9F047044603883F48012210
:10DFC0008CB000F1150A102B09D0112B55D01A2B4B
:10DFD00071D1217AB2EB111F54D2012353E0027D9B
:10DFE000417D05468A43011D06A806F0E1F9142289
:10DFF00006A901A8FEF75CFADFF8C09000263746B4
:10E0000009F114090DF104080AE000BF08EB46000D
:10E010001D2283884946281D009706F07BF9761C4F
:10E020000198B042F2D8287DA688C043C0B206F05D
:10E0300093F9A0F57F41FF3917D005EB400001238C
:10E04000868032465146281D06F0D7F90123324614
:10E050004946281D06F0D1F9A07D02280BD00023E7
:10E060001649A2881631281D20E00CB00420BDE816
:10E07000F047FFF713B80123F2E70023A2885146C7
:10E08000001D13E000230D490546A2881731001D2D
:10E0900006F0B3F9207A0221B1EB101F01D201235F
:10E0A00000E000230549A2881831281D0CB0BDE806
:10E0B000F04706F0A2B90CB0BDE8F0873C2900207B
:10E0C00070B50A4E05460024317D2A46301D06F003
:10E0D0005CF940B1B17D2A46301D06F056F908B111
:10E0E000022400E00124204670BD00003C290020ED
:10E0F00010B50024204607F07BF928B1641CE4B277
:10E10000182CF7D3182010BD03480122A240016843
:10E1100011430160204610BD3C29002010B5044683
:10E1200007F066F9002802D001482044407E10BD67
:10E130003C29002070B505460C46084607F058F902
:10E14000002808D004482A460119001D497EBDE870
:10E15000704006F01AB970BD3C29002070B5064623
:10E1600015460C46084607F043F9002809D0054833
:10E170002B4601193246BDE87040001D193106F0EA
:10E180003CB970BD3C29002070B540B10C4D2978D8
:10E1900039B1044605F0AAFF28B1002070BD0E2059
:10E1A00070BD082070BDE868062807D205492268BE
:10E1B00001EB8001401C0A60E860EEE7042070BDBE
:10E1C0006C2100207029002040B105490022012364
:10E1D000CA600B70C1E90102104670470E207047FB
:10E1E0006C21002000281FD000291DD00F4A127872
:10E1F000002A19D00A88112A0ED0302A06D0322AD5
:10E2000007D0332A10D1091D03F092BE091D03F077
:10E2100045BF091D03F006BE8988B0F8AA219142C6
:10E2200002D1002180F8A711704700006C21002066
:10E2300010B50B46040009D01148017841B1C168FE
:10E2400031B194F8A71129B1112010BD0E2010BDD5
:10E25000082010BDA4F8AA310021816084F8A8111B
:10E26000084884F8A611224600682060012118465B
:10E2700090DF0028EDD1012084F8A701002010BD17
:10E280006C210020702900207CB5054608880C46CA
:10E290000930904201D90C207CBD684671DF00280E
:10E2A000FAD121880820685420881B21401C80B2A4
:10E2B000208029542088401C80B220802844DDF82A
:10E2C00001100160BDF8051081802088801D80B29A
:10E2D00020809DF8001001B1012129542088401CA4
:10E2E000208000207CBD000010B50446FFF762FED0
:10E2F000204605F09DF921461448FFF773FF20469C
:10E30000FFF7FEFD2146124800F0D5F810482146DF
:10E31000103000F016F90E4821462430FFF798FD22
:10E320000B4821463C3000F03EF8094821460C38A5
:10E3300000F08FF9204600F0B9F9204603F026FDE1
:10E340002046BDE81040FFF70FBC0000602500200C
:10E350001827002018B10181C282002070470E20CA
:10E360007047C8B10A68BAB1B1B104C0496842F691
:10E37000062202C04FF6FF7120F8081B0021C18061
:10E38000012100F8021920F8022900F8021941F6CB
:10E3900002010180FFF7F8BE0E207047C08A0028F6
:10E3A00000D0012070471FB50988112911D10446FA
:10E3B0004FF6FF7020812046FFF7F0FF002808D0BD
:10E3C00002208DF800002268694620469047002010
:10E3D000E0821FBD7FB500240094012201940294C5
:10E3E00003948DF800204A88ADF802200A7801F1E4
:10E3F0000E0312BB8A88A2F5C055023D1DD18A7951
:10E40000012A1AD1002215E002EB420533F82560FB
:10E41000A6F60626B6F5005F0BD103EB85052E792F
:10E42000760706D52E6801966E6802962D89ADF89E
:10E430000C50521C0D7A9542E6D8BDF80C1009B16B
:10E440008DF800400268694690477FBD13B584B0DF
:10E450000446FFF7A3FFA0B12089E48A002301222C
:10E46000009305A90193ADF802400224ADF80430F1
:10E4700002918DF80040ADF80620694698DF06B09D
:10E4800010BD0520FBE738B50446086888B1206058
:10E4900001208DF8020041F60200ADF80000221DB7
:10E4A00069460120A0DF002802D12046FEF7C9FC02
:10E4B00038BD072038BD08B50A88102A13D0502A65
:10E4C00010D131F8062FC3889A420BD14A89012A0C
:10E4D00008D100228DF80020097B8DF80110026818
:10E4E0006946904708BD8988C18108BD1CB50022D6
:10E4F00001230092ADF80030ADF80220019141896E
:10E50000408A6A46A5DF1CBD38B5044608680D463A
:10E51000A8B120606868606001208DF8020041F6B3
:10E520000300ADF8000004F1080269460120A0DFF5
:10E53000002803D129462046FEF7D0FC38BD07202D
:10E5400038BD38B50B880022102B0DD0112B0ED002
:10E55000192B1CD1097A002919D18DF800208DF8CA
:10E5600001206946026816E089884182F5E7044681
:10E57000087A08280BD18DF8002020460DF1010102
:10E58000FFF7B4FF20B16168002900D0884738BD8B
:10E59000226869462046904738BD0A78027049785B
:10E5A000417002207047000000B51A4887B0002370
:10E5B000406805904822184905A806F0B5FC08B146
:10E5C000FEF76CFD6A460121002006F097FC08B1B9
:10E5D000FEF764FD114805F051FE08B1FEF75EFD3F
:10E5E000684606F081FC08B1FEF758FD012047DFC0
:10E5F00008B1FEF753FD0A4806F06CFC08B1FEF7BF
:10E600004DFD084806F0AAFC002801D0FEF746FDA3
:10E6100007B000BDD058020018250020E81F0020D8
:10E62000E9E20100714F020038B5044601208DF87F
:10E63000020041F604000D46ADF80000224669468E
:10E640000120A0DF002803D12946204606F064FD02
:10E6500038BD0A88102A01D189884181704700009D
:10E660007CB5114E0C004FF00005306015D06946A6
:10E67000002000F0B3F8002815D101A9012000F016
:10E68000ADF800280FD19DF8041009B1022003E075
:10E690009DF8001001B10B202070706810B9FEF7D2
:10E6A00081FB054628467CBD1C21002010B51A4C74
:10E6B0000188606810290ED011292BD1401E60609E
:10E6C00028D1FEF76FFB002824D02168002921D033
:10E6D000BDE810400847D0B900210122084600F0EB
:10E6E000EDF808B107280FD107220221012000F020
:10E6F000E5F808B1072807D104220221002000F024
:10E70000DDF820B1072802D0216801B18847606890
:10E71000401C606010BD00001C21002010B50320CB
:10E7200000F0D0FA08B1062800D1002010BD00008A
:10E730002DE9F041074627480068B84246D12548F0
:10E74000DFF894800C3808F10E050026A5F11604B8
:10E7500011B32A46012952780BD0022936D1164628
:10E76000002E33D0E16A002930D03046BDE8F041B8
:10E7700008472E7852B1216A174A01EB81014900FE
:10E78000521E8068FEF73EFF00B9E771A97888F84D
:10E79000001000F0CBFAE3E78068FEF773FF98F80B
:10E7A0000000A978884211D160893C2801D9022053
:10E7B0000BE001280AD966812078002806D1A089BB
:10E7C00040F62821884203D903202070BDE8F0815B
:10E7D0000420FAE710590200A420002008B100200C
:10E7E00009E006480068C2430548037801209840C4
:10E7F000104000D001200870002070471005005024
:10E800001059020010B52B4C0022A188491C89B276
:10E810000E283FD010DC042818D00A2812D00D286A
:10E820000FD1207810B1A180032917D0BDE8104086
:10E8300000212148FFF70ABE0F2831D0102800D14F
:10E84000A28010BDBDE8104006F016B81A4813218A
:10E85000008976DF0828F4D088B910BDA07890B17F
:10E8600000211548FFF7F2FD78B1A0F540510439B9
:10E87000F3D043F201418842EFD00528EDD0BDE846
:10E880001040FEF70BBC0221EBE7A07880F00100FE
:10E89000A07010BDA280A270112000F029F8DBE763
:10E8A000A180032904D000210348FFF7CFFDD3E75F
:10E8B0000221F9E7802000205427002010B5030032
:10E8C0004FF000000BD1094B0D24012A01D1012981
:10E8D00007D0002904D0012903D0022903D0072042
:10E8E00010BD1C7010BD0E21597010BDB22000204B
:10E8F000054A0146002092F82420D20702D008469B
:10E9000000F068B8704700009C2000202DE9FC4111
:10E910000646294800240F46C262C0E90816B0071F
:10E920001ED5002506E0012211462846FFF7C6FF46
:10E9300004466D1C55EA0400F5D08CB97A08012113
:10E940001E48FEF761FB04000AD1FEF74BFB0400F2
:10E9500006D11A481A4A00210838FEF7F9FD044684
:10E96000F00702D018491748086074B91348174ACD
:10E9700000211038FEF7ECFD040006D10F48144AC0
:10E9800001210C38FEF7E4FD044600F0B5F900253E
:10E990001E2000952B462A462946019503F03CF996
:10E9A00000221E20032300951146019503F034F93F
:10E9B0002046BDE8FC8100009C2000201459020084
:10E9C000F1EC010000000128180500506508020064
:10E9D00091CF01002DE9F84FB64F0546DFF8D8C2B8
:10E9E000B86A00902CEA000CB1480026396A083059
:10E9F000DFF8B8A2DFF8B8B2021FDFF8C09201EB6F
:10EA0000810E4FF000533446182D13D2DFE805F085
:10EA10000C1313A5BDD0DDF6F8EFF8EFEEEDEDED3C
:10EA2000EDEDECEBEAE9EEEE009B2AEA0301016072
:10EA30001460BC711FE14FF0005190461160064612
:10EA40000460388A411C3982F989884202D93C82A3
:10EA500002F0B2FA96480C300068800F10F0010FF7
:10EA600002D17889401C78813878012806D00228A4
:10EA700016D003282BD004283BD04CE08D48797861
:10EA80003630405C10B100F05FF901E000F04EF963
:10EA90007878401CC0B2787015283CD17C7039E081
:10EAA0008448B9784B30405C10B100F04DF901E07A
:10EAB00000F03CF9B878401CC0B2B87015282AD1D3
:10EAC000BC703C707C81F96A0A20884723E0794851
:10EAD000F9783030405C10B100F036F901E000F018
:10EAE00025F9F878401CC0B2F870062813D1FC70E4
:10EAF00010E0704839796030405C10B100F024F9C2
:10EB000001E000F013F93879401CC0B238711E28BA
:10EB100001D13C713C70DBF8000080EA0A00800003
:10EB200009D54FF00051C8F800103460022D12D002
:10EB30004FF47A6008E04FF000503060C8F80040B1
:10EB4000022D08D04FF4C8706421B0FBF1F1BD7103
:10EB5000386A414368E06420F6E7C2F800C0046008
:10EB6000DBF8006086EA0A06B60004D5136004608C
:10EB70004FF4487002E00360146024E06422B0FBAC
:10EB8000F2F04143BD7100224FE0C2F800C00460C2
:10EB9000DBF8006086EA0A06B60004D5136004605C
:10EBA0004FF47A60EAE7036014604FF4C870E5E759
:10EBB000C2F800C00460DBF8006086EA0A06B6000E
:10EBC000D9D513600460C820D8E7C2F800C004603B
:10EBD000DBF8006086EA0A06B6000BD51360046015
:10EBE0000AE05AE052E04DE048E025E020E011E084
:10EBF00006E003E003601460BD7115E0036052E0BD
:10EC0000DBF800304FF480349C43146003F480320E
:10EC1000026009E0DBF800104FF480338B4313608F
:10EC200001F48031016071460022D9F800001FE034
:10EC3000514637E0BD711EE0D9F80400FEF722FD11
:10EC40000646D5F1110000D026B1BC6200F06EF886
:10EC5000BC8210E04FF48031B962642110FB01F1F5
:10EC60006420B1FBF0F1386A00224143D9F8040076
:10EC7000FEF7C8FC06463046BDE8F88FC2F800A093
:10EC80000460D7E70C4911600460B7E74FF02051EA
:10EC9000116004604FF4803104E04FF000611160B6
:10ECA0000460074901601460C4E700000000012807
:10ECB000040500509C2000200000010804590200B7
:10ECC0000000012009490968890001F1A041D1F83B
:10ECD000002710F0010000D0032022F4403242EA65
:10ECE0000040C1F8000700207047000010590200E2
:10ECF00000780221FFF71CBD00B585B01422094938
:10ED00006846FDF7D5FB01208DF809000548064A45
:10ED100069460838FEF746FB002801D0FEF7BEF929
:10ED200005B000BDF05802005139020004494FF40B
:10ED3000803008600020091F08600248FEF7B6BA5C
:10ED40000C050050E858020070B50A494FF48030B5
:10ED500008600025081D05600748FEF7E7FA074828
:10ED600032240570224600210348FEF7C1F911281C
:10ED7000F8D070BD08050050E85802009A20002025
:10ED800005494FF0FF32082841F8202002D30844FB
:10ED900080F84820704700009C300020F0B54FF00C
:10EDA000FF3512B10023082601E008230C260C4C85
:10EDB00005E000BF54F823707F1C04D05B1CB342F5
:10EDC000F8D32846F0BD26185DB286F8305044F8D6
:10EDD0002310002AF5D1E11881F84800F1E700007E
:10EDE0009C3000200249084490F930007047000030
:10EDF0009C30002008B5024690F8A6010B46C0EBF7
:10EE0000C00000EB800002EB400092F8A52142B167
:10EE1000521ED2B202EB420100EB8102518A491C20
:10EE200000E0C188ADF800100089ADF80200694625
:10EE3000184692DF08BD000038B10549814204D868
:10EE40000449814201D90120704700207047000029
:10EE500090220020A0220020044A0168914201D0A3
:10EE6000083101E00149383901607047F83200206B
:10EE700070B504464FF6FF750A462846AC4208D1E5
:10EE80004FF480742146104604F08EFBA04209D056
:10EE900070BDFF2CFCD82146104604F078FB08B169
:10EEA000204670BD284670BD2DE9F05F2648C16838
:10EEB000F1B3DFF898B00E688146DBF800400769CF
:10EEC000C078E11B21F07F45ED1CB0B9DFF88080F0
:10EED0004FF48030C8F84403C8F804031120FDF74C
:10EEE000FBFB1120FDF703FC4FF0010AC8F800A05E
:10EEF0002F20FDF78FFA89F803A0B54200D23546DE
:10EF0000124BE8193C3320F07F401860DBF800100A
:10EF10005A46091B21F07F41001B20F07F40C91C8D
:10EF200081420FD9106818602F20FDF773FA00E0B6
:10EF300004E0BDE8F05F1120FDF7E4BBBDE8F05F41
:10EF400005F0F8B8BDE8F09F482200200415014004
:10EF5000001001402DE9F04117880646B81D1446FF
:10EF60000D46984202D90C20BDE8F0813188072275
:10EF700006290AD34FF4486C4FF6FF73614501D957
:10EF8000994202D17088062801D21046ECE760450C
:10EF900001D99842F9D1994203D0984201D08142D7
:10EFA000F3D80520E85520881221401C80B220802B
:10EFB00029542088401C80B220804119308806F0F6
:10EFC000E1F92188084480B220804119708806F058
:10EFD000D9F92188084420800020C5E7FEF75EB8F3
:10EFE000F8B5134801F0ACFB114D0026114C0C3D57
:10EFF00030B16169B9B101208DF80000684611E0B7
:10F00000287820B1616971B18DF80060F6E7687801
:10F0100058B1A168084800220068FEF7F3FA10B161
:10F02000A16901B188472E70F8BD6168F2E7000060
:10F0300064210020202900201C59020001460148BB
:10F04000FFF7C8B9542700202DE9FF410C4618B13D
:10F05000012004B0BDE8F08120790027DFF87C8032
:10F06000012638B141F61D5501281ED0022829D0AD
:10F070000F20EEE702970397E0680190694601A828
:10F0800004F084FF68B102988188E18000882081C3
:10F09000029804F0EFFFBDF8002008EB02118E7318
:10F0A00000E00A2002212171D3E70D4B6A460021BE
:10F0B000A01D04F027FF38B1094908398F60CF60DF
:10F0C0000A28C6D12846C4E7019804F0D3FF0449B2
:10F0D0008A8808EB02118E73F2E7000008330020E3
:10F0E000702200202DE9F843054690F8A60195F816
:10F0F000A541C0EBC00000EB800005EB40060F46C9
:10F1000004EB4400914606EB80013279601C0A3121
:10F11000904226D16B460022284601F01FFB18B30F
:10F1200010E0401EA04201D1002004E004EB4400A6
:10F1300006EB80001630804602466B46284601F0FA
:10F140000DFB30B1002038706946484693DFBDE8BA
:10F15000F88395F8A5014146401C641C85F8A5017B
:10F16000E4B23079A042DCD8012038700020EEE70C
:10F170002DE9F04100260125144C22E06068226947
:10F1800000EBC607387805FA00F1114217D08A4320
:10F19000226102F085F802463878E36805FA00F14A
:10F1A000194002FA00F3994209D17978012901D076
:10F1B000012100E0002151407A6802B19047761C9D
:10F1C000F6B220788642D9D3BDE8F08134220020FF
:10F1D0002DE9F047894690F8A6119046C1EBC10190
:10F1E00001EB810100EB4107384604F07FFF060088
:10F1F00039D01E4CA068062835D21D4D00EB80008A
:10F2000005EB00104622A0F802803946001DFDF7EC
:10F210004FF90027B9F1000F06D0A06800EB80007D
:10F2200005EB0010077006E0A168022001EB8101E8
:10F2300005EB01110870A06800EB800105EB0111DE
:10F24000401CCE64A060E16888420CD1002606E034
:10F2500006EB860005EB0010C16C8847761CE06861
:10F260008642F5D3A760BDE8F08700006C2100203E
:10F270008829002030B50D4690F8A61193B0C1EB57
:10F28000C10101EB8101144600EB410004F02EFFA7
:10F29000030007D0ADF8024001208DF80000684659
:10F2A0000195984713B030BD0E4910B54A788C7857
:10F2B0000023A24212D0521CD2B24A70022A00D1BC
:10F2C0004B70084A4B78183252F8232002600869C4
:10F2D000104420F07F400861012010BD0360002031
:10F2E00010BD0000482200203EB5094D38CD8DE804
:10F2F0003800ADF8041007498DF80620ADF802007B
:10F30000497B0022FEF72AFF684600F089F83EBDDF
:10F31000785902009821002010B503780022072BAD
:10F3200006D2DFE803F00504060C1C252B000A704A
:10F3300010BD01220A7002898A81828814E00222AB
:10F340000A7002898A818288CA81C2688A60007CC8
:10F35000062802D00020087410BD0120FBE703221C
:10F360000A70C2888A810289CA81C068886010BD1B
:10F3700004230B70C0888881CA8110BD05200870E5
:10F3800010BD000070B5064D0646002455F8241047
:10F3900009B130468847641C032CF7D370BD0000C8
:10F3A0003C3200200EB5002911D011290FD00022C7
:10F3B00000920292ADF8020001910D2908D00429B3
:10F3C00008D009208DF80000684600F03BF80EBD1B
:10F3D0000B20F7E70A20F5E770B506460024064D36
:10F3E00005E000BF55F8241030468847641C287B90
:10F3F000A042F7D870BD0000682B002070B506460B
:10F400000024064D06E000BF05EB8400016930468C
:10F410008847641C287FA042F6DC70BD5030002075
:10F4200070B506460024064D05E000BF55F82410CF
:10F4300030468847641C287BA042F7DC70BD000082
:10F440009821002070B506460024064D05E000BF57
:10F4500055F8241030468847641C287BA042F7D812
:10F4600070BD0000E821002028B1002242608260C7
:10F470000160104670470520704700007FB5416865
:10F4800059B100210391017800252F4C062954D24F
:10F49000DFE801F05305151B2D4D0121F2E741680E
:10F4A00001B103218DF800108189A1F54041ADF82B
:10F4B0000210817B8DF804104168039112E04168CD
:10F4C00009B10421EEE70121ECE7416869B10521AA
:10F4D0008DF800108189A1F54041ADF80210817BC3
:10F4E0008DF804108068029024E00221F0E7C189C1
:10F4F00001BB8189A1F57F42FF3A1BD0A1F54041B4
:10F5000089B2FF22ADF802108DF80420406838B1AE
:10F5100007208DF800006577A57703F0CBFD09E0A3
:10F5200006208DF80000084603F052FEF3E708209D
:10F530008DF80000684603F073FBA07F002802D01E
:10F54000A57703F0B7FD7FBDA02C002000B51149C1
:10F5500087B00978890702D4022007B000BDA0F562
:10F560007F41FF3911D005218DF8001001218DF860
:10F570000410ADF8060000221146684602F004FEB1
:10F5800028B104F0A1FC0020E7E70420E5E708200B
:10F59000E3E700006822002000B50E4887B000783D
:10F5A000800702D4022007B000BD06208DF80000BD
:10F5B00000221146684602F0E7FD40B10648017896
:10F5C00009B10121017304F07FFC0020EBE7082062
:10F5D000E9E70000682200202833002000B58DB044
:10F5E00014216846FCF77DFF1E480078810703D58B
:10F5F0006846FFF7C7FE33E0C00731D1012000F0B5
:10F600000BF900F079F902F053FE70B106280FD023
:10F6100001218DF814100C281BD2DFE800F01A101D
:10F620001A101A181A181A1216120B200DB000BD53
:10F63000022000F0F1F8012000F0D4F8D8E7002013
:10F6400000E003208DF8180003E00220FAE78DF8AF
:10F6500018100022114605A802F096FD04F034FCB3
:10F660000020E3E76822002038B5040011D0694685
:10F6700004F08CFC88B10A48BDF8001000EB0110C2
:10F68000818941B1A27A32B1491E81810020A072E4
:10F6900038BD052038BD062038BD0A2038BD000021
:10F6A000083300201FB501A9684604F02BFC04B004
:10F6B00010BD07B513460A466946002004F022FC37
:10F6C0000EBD07B513460A460021684604F01AFC31
:10F6D0000EBD20B119B100680860002070470520F8
:10F6E0007047000038B50D46040015D0A5B1694635
:10F6F00004F04CFC90B10A49BDF80020606801EBB1
:10F7000002129189491C9181286060680C30686000
:10F710000120A072002038BD052038BD0A2038BD68
:10F720000833002018B10323002205F071BF052023
:10F7300070470223002205F06BBF12B1022305F0CF
:10F7400067BF052070470000064A5178032906D09C
:10F75000054B43F82100491C5170002070470C20D4
:10F7600070470000682200203C32002038B5044673
:10F770000A480D460078800701D4022038BD54B1F4
:10F780006946284606F07AF80028F7D1BDF800103F
:10F790002180658038BD052038BD0000682200202A
:10F7A00010B504460D480078800701D4022010BD32
:10F7B00084B1218802290FD8094800EB0110428941
:10F7C0006088121A032A07D406F04EF80020208021
:10F7D000608010BD052010BD042010BD68220020EF
:10F7E0000833002002490A7882430A7070470000FB
:10F7F0006822002010B504460078182802D1FEF7D0
:10F8000077FC207010BD10B504460078182802D18E
:10F81000FEF76EFC207010BD02490A7802430A70A0
:10F82000704700006822002070B51346002206468B
:10F830001546042905D0112901D019B170BD012543
:10F8400000E001220D4C7BB1A17CFEF787FC617CBE
:10F850002A463046FEF782FCA17B00223046FEF7A6
:10F860007DFC617B002204E0A17BFEF777FC617BDD
:10F870002A463046BDE87040FEF770BCE821002003
:10F88000F8B50646194815460C460078C00708D05A
:10F890003046FFF7D1FA30B13CB1200507D0062041
:10F8A000F8BD0120F8BD0220F8BD0320F8BD306886
:10F8B000A04204D8716804EB0530884201D90520C4
:10F8C000F8BD75B1684604F04DFA60B100980221A8
:10F8D00006600171210B0181858104F005FB002088
:10F8E000F8BD0420F8BD0720F8BD000080220020EC
:10F8F000084604F053BA00002DE9F0431D49DFF833
:10F900007890A1EB090006094FF010204169481CCE
:10F9100003D14FF0805040690103DFF8608000227E
:10F92000551E98F800C05FEACC7002D00020BDE8F8
:10F93000F083002417E00023184609E009EB0017C4
:10F94000A84204D07F7B9F4201D33B460246401C25
:10F95000B042F3D309EB021015464160037B641CEF
:10F96000A1EB03310160B442E5D34CF0010088F80B
:10F970000000DBE7A022002090220020802200204F
:10F9800020B10349496D0160002070470320704792
:10F9900038330020F8B507461B481E461546007848
:10F9A0000C46C0070BD03846FFF746FA48B155B1B0
:10F9B0004CB145EA0400800707D00620F8BD0120BD
:10F9C000F8BD0220F8BD0320F8BD3868A04204D875
:10F9D000786804EB8601884201D20520F8BD76B133
:10F9E000684604F0BFF960B1009801210760017119
:10F9F000C0E90254068204F077FA0020F8BD042022
:10FA0000F8BD0720F8BD00008022002070B5174A1D
:10FA100017490446106D0B7800EB800002EB800064
:10FA20009D0715D5022C02D0032C1BD102E002F059
:10FA30000BFB17E04A78521CD2B24A70032A11D944
:10FA400000224A70082104F0AFFD04F075F909E0C6
:10FA5000580707D523F004000870526D12B140F02A
:10FA600002000870BDE8704004F0F6B93833002099
:10FA7000802200200EB518A19DF8080020F00F008C
:10FA8000401C20F0F00010308DF808000D2202A874
:10FA90007CDF08B1FDF702FB4FF4107078DF08B18E
:10FAA000FDF7FCFA00204FF4C87100900190ADF80A
:10FAB0000400ADF800104A00ADF80220ADF80610C1
:10FAC00068467ADF08B1FDF7E9FA002077DF002801
:10FAD00001D0FDF7E3FA0EBD4E6F726469635F50AB
:10FAE000726F785F4200000070B508B1012070BDF0
:10FAF000184C0025207B08B1257301E000F09EF82A
:10FB00002078082824D2DFE800F02304080C102312
:10FB1000141EBDE8704000F01FB8BDE8704000F052
:10FB20007BB8BDE8704000F05FB8BDE8704000F001
:10FB300037B808496088203901EB00104068BDE8FB
:10FB4000704002F09DBB6560BDE8704002F0A2BB52
:10FB50000F2070BD283300201049F0B48A1C00200B
:10FB60000346A1F120050C18A67A3EB1A37205EB5D
:10FB70000014A68916B9A47B012C0AD0401C80B2BF
:10FB80000228F0D30B704B804B60F0BC41F61D5047
:10FB900070471080F0BC00F03FB800002833002010
:10FBA00010B50E4CA4F12001608801EB0010818992
:10FBB00059B1052020700A48022101228180016884
:10FBC000BDE810400748FFF75BBE416801220548C9
:10FBD000FFF756FE0421217010BD000028330020DD
:10FBE000782200209022002030B4094907480B6891
:10FBF0004268898803EB81015388DB1C032404706D
:10FC000030BC9BB20348FFF7C5BE0000283300207C
:10FC10007822002090220020074910B54888091D4D
:10FC200004F002FA18B1BDE81040FFF7DDBFBDE8EF
:10FC30001040FFF7B5BF000028330020F0B51D4885
:10FC40001D490125067802248B88A0F12002082E88
:10FC500018D2DFE806F00417171A212C2C16018998
:10FC6000491C01810021418080F80C1002EB011336
:10FC70001B7843B100234418491C89B2A37202299E
:10FC8000F4D30570F0BD0123F5E742685288D21C19
:10FC90001A448A800470F0BD46880D6802EB061293
:10FCA00056680E60556013818C80062100E00721A4
:10FCB0000170F0BD2833002078220020704700003A
:10FCC00010B5040007D0054802F080FD002801D1DE
:10FCD00003490C6010BD0E2010BD0000312402004D
:10FCE00084210020F0B505460088374C8DB050289F
:10FCF0001ED0522802D0542828D103E0A88801F051
:10FD000003F823E006208DF80000A88800F0CAFB65
:10FD1000ADF80200A988ADF8041000F067F9A179E8
:10FD2000A8880022FEF71AFA2168684688470DE085
:10FD3000287B01280AD1A87A012807D12889A0F5B3
:10FD40002451023902D1A88801F018F86079FEF731
:10FD5000E5F9C0B108A8FEF715F9142208A903A80F
:10FD6000FCF7A6FB002503AE0AE006EB4507617928
:10FD7000B888FEF7DFF910B1B88800F0C5FF6D1C38
:10FD80000398A842F1D82079FEF7C8F9C0B108A8B5
:10FD9000FEF7F8F8142208A903A8FCF789FB002550
:10FDA00003AE0AE006EB45072179B888FEF7C2F9F1
:10FDB00010B1B88800F0E2FF6D1C0398A842F1D89A
:10FDC00004F016FC0DB0F0BD7C21002070B586B0AB
:10FDD000044614216846FCF784FB6088ADF80400F3
:10FDE00000F0C8FAADF802002578002008220721AB
:10FDF00005230A2D29D2DFE805F005050C0E1017A2
:10FE0000192B1D208DF809008DF800108DF80820A1
:10FE10001BE00D200BE00E2009E08DF809008DF8A5
:10FE200000108DF8083010E00F2000E010208DF851
:10FE300000000AE08DF8003007E006208DF8000091
:10FE4000A0680290A088ADF802006846FFF7D6FAD5
:10FE500006B070BD70B5050030D01B4800F00EF93B
:10FE600000282CD11948FFF72BFF002827D118486C
:10FE70000021044641601748256000F049FB002836
:10FE80001DD1154804F0F6FF050018D1FEF730F932
:10FE90002071FEF72DF96071FEF72AF9A071FEF7C7
:10FEA00027F9E071217918290AD06179182907D03A
:10FEB000A179182904D0182802D002E00E2070BDC4
:10FEC0000325284670BD000015000200BDFC01009E
:10FED0007C210020A5030200054C02002DE9F04121
:10FEE00086B000F0E1F86846FEF74CF800246D4655
:10FEF0004FF6FF77DFF834800FE000BF05EB4406D4
:10FF0000B08800F0CFFAB84205D198F80610B08852
:10FF10000122FEF723F9641CA4B20098A042EDD898
:10FF200004F066FB06B0BDE8F08100007C210020F3
:10FF300070B50B4D044695F83711FEF7FBF868B124
:10FF40005FF0000101EB410005EB8000008AA04258
:10FF500001D1C8B270BD491C0829F3D3FF2070BD80
:10FF6000682B002070B50A4D002400BF04EB44004C
:10FF700005EB800095F83711008AFEF7DBF820B119
:10FF8000641C082CF2D3FF2070BDE0B270BD0000ED
:10FF9000682B00202DE9F041124E07460125BD4097
:10FFA0003068FDF76FFB00280DD10F4C2069284207
:10FFB00007D1384601F074F90028E06805D02843DD
:10FFC00004E0A8432061BDE8F081A843E060206917
:10FFD00028432061A1683068BDE8F0410022FDF7A8
:10FFE00011BB0000A0590200342200201CB50749B3
:10FFF0000968002908D0064AD2E90212CDE90012A8
:020000040002F8
:100000000022694602F0C4FB1CBD00008C210020C8
:10001000245902003EB504464088174DADF8020051
:1000200020782968A0B101281DD002280FD120799D
:1000300000280CD0608800F09DF9A0F57F41FF39C1
:1000400005D0A9790122FEF789F804F0D1FA3EBD66
:1000500000208DF8000068468847608800F08AF923
:1000600000F052FE3EBD01208DF80000A088ADF8E2
:100070000400684688473EBD7C21002010B504007E
:100080000CD0074802F0A2FB002806D10549002247
:100090004A604FF6FF728A800C6010BD0E2010BDC2
:1000A0004D2402008C21002010B5074C2068002848
:1000B00008D04FF6FF7002F023FBA080BDE810408F
:1000C00004F0C0BA10BD00008C2100202DE9FC41D5
:1000D00080461D48006888B1404600F0E3F90024DE
:1000E00003250127A0F57F412646FF390DD00023C7
:1000F0006A46082102F05EFB18B106E00820BDE860
:10010000FC810198841D8688056832462B4621466D
:100110004046A9DF042804D0082804D00B2807D0C3
:1001200002E0112000E00020002FE8D10B20E6E7DC
:100130000027A80701D50125E7E73443F6D00024BE
:1001400026460325E1E700008C2100202DE9FC4133
:10015000804621480068D0B1404600F0A3F9074628
:10016000A0F57F40FF380ED001252A466D1C0026E1
:10017000ADB26B460821384602F068FB040008D097
:10018000072C26D026E043F20200BDE8FC810820BF
:10019000FBE7019903230A1D0B604046891DAADF76
:1001A000040004D00C2C08D0052C08D008E008214D
:1001B000384602F0F5FB04460CE0012600E000247E
:1001C0000821384602F0D0FB00B10324002ECCD128
:1001D00000E00C242046D8E78C2100201CB500F05C
:1001E00061F900236A46012102F0E4FA08B1002017
:1001F0001CBD01201CBD00002DE9F041084C074644
:100200004FF6FF7643F20305324621883846A7DFD2
:10021000A84203D12088401C2080F5E7BDE8F0818A
:10022000882100208188A1F57F42FF3A03D0008811
:1002300008B101207047002070470EB502780B46C8
:10024000022A17D1B0F80120ADF80020C1788DF84E
:1002500002108188ADF8041080798DF8060002AA9A
:1002600001A91846FCF7C4FD032202A96846FCF761
:1002700043F908B100200EBD01200EBD70B50E4D32
:100280000C46297B89B194B1FFF752FEFF2810D0AC
:1002900000EB400005EB8000D0F812102160C18A0D
:1002A000A180007EA071002070BD082070BD0E20CE
:1002B00070BD052070BD0000682B00202DE9FC41B9
:1002C00005460088102850D1E97D4FF6FF76344668
:1002D000CA0705F1080806D021F0010024490844A6
:1002E000B0F86E402EE0287A03282BD0204622E07A
:1002F000287A20B1012802D002281BD10CE000236B
:100300006A460721384602F055FA98B901994046E5
:100310001131FCF735FC0BE000236A460721384613
:1003200002F048FA30B901994046491CFFF785FFB1
:1003300000B13C46384602F0E3F90746B04201D02E
:10034000B442D5D0A888414600F09CFEB4420CD0FF
:10035000A888214600F087F8A888ADF8020001209F
:100360008DF800006846FFF737F8BDE8FC81000013
:10037000682B00200A4A002101EB410302EB8303B2
:10038000DB89834205D101EB410002EB8000008A4A
:100390007047491C0829EFD34FF6FF7070470000E3
:1003A000682B002010B50446007801280FD1608822
:1003B00000F0AAFC6088FFF711FF002807D004486E
:1003C000012281796088BDE81040FDF7C7BE10BDED
:1003D0007C21002010B50446007886B0D8B10128F1
:1003E00017D10F480122817F6088FDF7B7FE1421E5
:1003F0006846FCF776F86088ADF80200608800F087
:1004000051F8ADF8040000208DF800006846FEF7B2
:10041000F5FF06B010BDE08803F01EF9F9E7000013
:1004200050300020018811B9421892780AB1012099
:100430007047491C0829F7D30020704710B50C46B7
:100440000346FFF7EFFF00280AD01888218888426A
:1004500005D10822A11C981CFCF74EF808B1002019
:1004600010BD012010BD02F0EBBE000070B50446C7
:100470000B48007B68B12046FFF77CFF054620460D
:1004800002F052F94FF6FF7104468D4206D014B1C6
:1004900004E0082070BD284602F0D2FE204670BD60
:1004A000682B002010B5FFF743FD07490A7B3AB1DE
:1004B000FF2805D000EB400001EB8000C08910BD93
:1004C0004FF6FF7010BD0000682B00207CB506467B
:1004D0004FF6FF75284614E000236A46072102F014
:1004E00069F968B9019930464631FFF7A7FF28B985
:1004F000019930462A31FFF7A1FF08B120467CBDA3
:10050000204602F0FDF80446A842E5D128467CBD0D
:1005100070B5050004D01A4C0020217B11B124E0F5
:100520000E2070BD4FF49C711548FBF7DAFF0020D8
:10053000207384F83601182084F8370100204FF624
:10054000FF7100BF00EB400204EB8202401C1182ED
:100550000828F7D3FDF7CCFD84F8370118280DD013
:10056000084802F033F90028DBD1217B032905D2AA
:1005700044F82150217B491C217370BD042070BDBB
:10058000682B00209D2402002DE9F0410F4628B180
:100590000120FFF727F90120BDE8F081397961B129
:1005A0000026264D01290DD0254C4FF002080229C6
:1005B000206822D003293BD127E001F06BFE012106
:1005C000397133E05FF0000005EB00110978022972
:1005D0000CD0401C80B20228F6D30220FFF71CF991
:1005E0000120FFF7FFF841F61D50D5E705EB001499
:1005F000606801F045FE267018E0014601221148AE
:10060000FFF73EF9A4F804800FE001F039FE0B4932
:1006100022682031498805EB01114B6823604A604C
:10062000A2880A81A4F804800E703E710028B3D01D
:100630000120FFF7D7F80E20AEE7000008330020B6
:100640007822002090220020F8B51A4C207800284B
:100650002ED0206928B10026E06820B1002526B1FF
:1006600010E00126F8E70125F9E7684652DF052882
:1006700003D020B1FCF712FD04E0012602E021695D
:100680000098884785B96088ADF800006946A06881
:1006900061DF052803D020B1FCF700FD04E001254F
:1006A00002E0D4E902018847002EDED0002DD6D02A
:1006B000F8BD0000242100202DE9F0410025164658
:1006C000884604462F4612E04FF4A07000EB8500E8
:1006D0004FF480312258A9403AB1D4F804230A4299
:1006E00003D02750D8E9002190476D1CEDB2B542E8
:1006F000EAD3BDE8F0810000012181400348406851
:10070000014201D0012070470020704708220020DC
:100710000121814003484078014201D00120704707
:100720000020704708220020014601208840FDF784
:100730000FB80121814011F0330000D00120704733
:10074000054940880A88904204D34988884201D8E4
:1007500001207047002070475C21002009892AB1E0
:10076000D088491C814218D10020704790F8A621FA
:10077000C2EBC20202EB820200EB420212899142FA
:10078000F2D0491C198090F8A611C1EBC10101EB10
:10079000810100EB4100008902E01980D088401EF1
:1007A00058800120704770B504460D46401C00F08B
:1007B0001FF828B11022691C601CFBF79DFE40B198
:1007C000002605F1110104F11100FCF7D9F93043BD
:1007D00070BD0126F5E70000012181400348014278
:1007E00001D001207047002070470000FF3F0F003C
:1007F0000021425C0AB101207047491C1029F8D33E
:1008000000207047800701D000207047012070470A
:1008100030B51488E51C9D4201D90C2030BD02255D
:100820000D5513881C245B1C9BB21380CC54138879
:100830005B1C9BB21380012807D0022807D0032835
:1008400007D0042807D0072030BD002004E0012095
:1008500002E0CD5401E00320C8541088401C1080F1
:10086000002030BD044890F82410C90702D08079D8
:10087000FEF7B0B8704700009C2000202DE9F0473B
:10088000224D1F460E009046814601D0002104E013
:10089000687DC0B11D494846163104F0F5F904469B
:1008A000014600224846FEF7BFFF1FB121464846D9
:1008B000FEF778FD0D2C10D008DC74B1042C1AD092
:1008C000082C09D109E00520BDE8F087112C06D0DD
:1008D000A4F54050023800D003242046F4E7297CD8
:1008E00032464846FDF73AFCE97B42464846FDF76A
:1008F00035FC0024F1E7297C32464846FDF72EFC02
:10090000E97B42464846FDF729FCE6E7E82100205E
:100910002DE9FC4117460C00064604D02078C0079C
:1009200005D0012004E000217EDFBDE8FC8102202B
:100930008DF804003046FFF7B5FD0546A0F57F4071
:10094000FF3808D001A800902B463A462146304691
:1009500000F021F806E020782146C007304603D099
:1009600000F07EF804460BE07EDF04004FF000004C
:10097000009007D0002201232946304603F0DAFD1B
:1009800014B106E00122F6E79DF80410304603F0AA
:10099000FBFD2046C9E72DE9F04F85B09A460025BA
:1009A0009046894683462E462B4601AA072150468B
:1009B0000E9F01F0FFFE040008D1029D95F844004F
:1009C000183510F0010601D0029D343558EA0400B4
:1009D0004FF000080FD175B126B905F11200FFF7ED
:1009E00021FD40B12A4605F11201584685DF044633
:1009F00087F8008021E00CB1052C1ED199F8000089
:100A0000C0070DD003AB01220721504601F01EFFA5
:100A100004000AD10721504602F02CF8040004D14A
:100A2000494658467EDF040007D00721504601F0B2
:100A30009BFF10B1052800D00324CDF80080387842
:100A400008B1012300E0002344B10022514658467A
:100A500003F070FD05B02046BDE8F08F0122F5E7F8
:100A6000FEB50F46064601F055FE0546A0F57F404F
:100A7000FF381ED001AB01220721284601F0E6FE17
:100A800004000AD10721284601F0F4FF040004D134
:100A9000394630467EDF040007D00721284601F0A2
:100AA00063FF10B1052800D00324012000905CB141
:100AB00002E0032400200090002201232946304652
:100AC00003F038FD2046FEBD0122F6E72DE9F04196
:100AD000134D0F4616468046697BFDF72BFB002819
:100AE0001BD04046FFF7DEFC0446A0F57F40FF38F0
:100AF00013D0A97B4046FDF71DFB38B133463A467B
:100B000021464046BDE8F04101F03EBC3246394640
:100B10004046BDE8F041FEF7E7BBBDE8F0810000CC
:100B2000982100202DE9F04385B08146FDF7F6FAC3
:100B3000002820D06846FDF725FA00246E4617E00D
:100B400006EB44054946A888FDF7F4FA78B10B4F47
:100B5000A888F97BFDF7EEFA8046397CA888FDF776
:100B6000E9FA0146A88801234246FFF787FE641C84
:100B70000098A042E4D805B0BDE8F083E821002049
:100B80002DE9F047DFF8ACA0DAF80C009AF8004045
:100B900080469AF80460DAF80890DAF810703AE0C3
:100BA00009EBC4052A7833E002EB42016B68521C62
:100BB00003EBC101AB78D2B2934200D100220B7893
:100BC000022B02D0032B23D11FE0D1F804C003462F
:100BD000014603E0614503D00B46C969C1B1F9E79D
:100BE000B1B18B4205D1C06918B9134F0126BE605F
:100BF0000027D1F800C0C969D96149B10B686344C5
:100C00000B6005E00174C06900E000210028F9D103
:100C100069789142C8D1641EE4B2C1D2CAE903071F
:100C20008AF80460404502D00120BDE8F08700202A
:100C3000FBE7000048220020001001402DE9F047AA
:100C400005462F48002680460778D0F80C904BE0E8
:100C5000D8F8080000EBC70440E002D02846ED6950
:100C60001EE02078616800EB4002401CC0B201EB3E
:100C7000C2012070A278904200D126700A7848689C
:100C8000012A2DD1027C5ABB8A684260CA68826000
:100C90000A69C2604969816198F8041001B146602F
:100CA0004268D8F81030DFF85CC0D11A21F07F41DB
:100CB000614502D28268114406E0991A826821F0E7
:100CC0007F418A4202D9511A016000E00660466005
:100CD000012186600174C66104F09AF9002DBCD12F
:100CE000207861788842BCD17F1EFFB2B0D2D8F89C
:100CF0000C10494502D00120BDE8F0870020FBE739
:100D000048220020FFFF7F00FEB504460027A0F523
:100D10007F40FF382FD02046FFF7D8F9164E050048
:100D200013D00B2D15D0112D11D0A5F54050023840
:100D30001CD009208DF800002046FFF7B3FBADF86A
:100D40000200ADF8044002950DE0022002E0012708
:100D50000CE003208DF800002046FFF7A3FBADF860
:100D60000200ADF8044031686846884771793A4618
:100D70002046FDF7F3F9FEBD7C210020FEB50446B8
:100D80000027FFF7E3F91A4D06460C281AD003DCBA
:100D9000A6B1042E06D128E0112E11D0A6F54050A0
:100DA00002381CD009208DF800002046FFF77AFB9E
:100DB000ADF80200ADF8044002960DE0012002E01B
:100DC00001270CE007208DF80000ADF80440204614
:100DD000FFF768FBADF80200296868468847297963
:100DE0003A462046FDF7BAF9FEBD0820EBE70000C1
:100DF0007C210020F8B5054600780C4600262042EC
:100E00000FD100208DF800006846FCF763FC2878BD
:100E1000204202D12043287001269DF80000FCF7F3
:100E20007DFC3046F8BD0000002398B0414A072100
:100E30001846FCF79FFB08B1FCF730F93E4A012148
:100E40003E48FCF785FB08B1FCF728F93C4A40F620
:100E5000CD410320FDF75AFD08B1FCF71FF96946A3
:100E60000020FDF7FDFB08B1FCF718F99DF8000024
:100E700002285CD05FF00004FDF796FB204602F0EC
:100E800017FAFEF7F7FD382101A8FBF72AFB02202D
:100E90008DF8040001258DF8065006208DF8070016
:100EA0000420ADF814002748069024210FA8FBF772
:100EB00018FB4FF40C700024139044F2506000941F
:100EC00014908DF84850204B0FAA214601A8FCF73A
:100ED000BDFD08B1FCF7E2F81C48FDF775F908B153
:100EE000FCF7DCF803F062FC1C216846FBF7F9FA1A
:100EF0004FF42030CDE900404FF4702002900320E1
:100F00008DF80C001248ADF80E408DF81050CDE968
:100F100005406846FCF7C8FF08B1FCF7BFF8FBF7CF
:100F20005CFF48DF0028FCD0FCF7B8F8F9E70124A3
:100F3000A2E70000C0220020D7D90100D05802004B
:100F400005E801008A200020651D02003DF0010037
:100F5000DDEF010070B5144682880E4605462088F4
:100F6000111D0144921C994201D8FE2A01D90C207E
:100F700070BD521C32542088FF21401C80B220805A
:100F800031542088401C80B220808119288804F0C8
:100F9000F9F92188084480B22080AA8842B1A96862
:100FA00041B13044FBF784FA2088A98808442080A6
:100FB000002070BD072070BD10B5FBF7B1FD0448DF
:100FC00000224FF4A4710068BDE81040FCF71ABB82
:100FD000D058020010B500F0FFFC4FF0E021802057
:100FE000C1F8800210BDF8B50E46017814460546DA
:100FF000012901D1687830B12088821C9A422DD80D
:10100000012902D006E00720F8BD69780144891C57
:10101000994223D8181A801E87B2ADF80070218833
:10102000B01C084469467DDF0028EDD128780228ED
:1010300005D1BDF80010B94201D809210AE0082104
:10104000012805D16878B84202D8ADF8000001E067
:10105000ADF80070BDF80000FE2801D90C20F8BDE5
:101060002288401CB0542088401C80B2208031541B
:101070002088401C2080BDF80010084420800020FB
:10108000F8BD00002DE9F04105460C004FF0FF00CF
:1010900020D04FF6FF77BD421CD00F4E01222846CC
:1010A00096F83711FDF75AF82846FEF741FFFF285A
:1010B00003D1FEF757FFFF280CD000EB400106EBF1
:1010C00081010D82CF812268C1F81220A288CA82D4
:1010D000A2790A76BDE8F081682B002070B54FF642
:1010E000FF750E46A84201D1002000E0401C84B2EA
:1010F00008E02146304602F072FA08B1204670BD81
:10110000641CA4B2FF2CF4D9284670BD4907090E0F
:10111000002806DA00F00F0202F1E02282F8141D26
:1011200003E000F1E02282F8001400F01F02012128
:1011300091404009800000F1E020C0F88012C0F822
:10114000001170472DE9F0478846814602F0EEF81D
:101150000124224E0028484618D0FDF743FE3044B3
:1011600090F848008009032802D0012806D007E043
:101170001B48006804FA09F4204201D1022100E072
:1011800003214846BDE8F04700F071BD02F0DAF8EF
:10119000002820D04846FDF725FE0546114F4FF4A4
:1011A000807007EB850100EB8500D1F8102580B237
:1011B00042F00102C1F8102500F068FDB8F1000FFF
:1011C00009D04846FDF70EFE56F82000002802D050
:1011D000AC40C7F80443BDE8F08700009C30002015
:1011E00010050050006000402DE9FC41DFF8A480AC
:1011F000044608EB0400002790F930001346C0179E
:101200000E46401C01D0082740E0F27819462046DF
:10121000FDF7C4FD0546401C37D0B07848B1A000AA
:1012200000F1A040D0F8001721F00201C0F800172B
:1012300007E000217378204600910A46019100F0F2
:10124000FCFCF078C0B11448317800EB8500D0F890
:101250001025124B1A40C0F810254FF4F8524FF4E5
:10126000403302EA042203EA01410A43D0F8101590
:101270000A43C0F8102509E008EB0500327810F8A1
:10128000481F41EA8211017000E004273846BDE89A
:10129000FC8100009C30002000600040FFE0FCFF6B
:1012A00003490968C14011F0010000D001207047D6
:1012B0001005005070B5124D95F8540008B1082083
:1012C00070BD0020411E2A18401CC0B282F83010A8
:1012D0002028F8D300242046FDF752FD641CE4B218
:1012E0000C2CF8D306210846FFF710FF05494FF0F4
:1012F0000040C1F80403012085F85400002070BDAF
:101300009C30002000600040034890F85400002802
:1013100000D00120704700009C3000202DE9FC41E6
:10132000044628480D462044002690F93010491CF8
:1013300001D008263FE0A978002751B301220021FF
:101340002046FDF72BFD411C21D083001E482A7842
:1013500018446978D0F81035DFF870C003EA0C0340
:10136000C0F81035D0F810354FF4F85C0CEA042CB6
:1013700043EA0C034FF4403C0CEA02424FF4801C59
:101380000CEA01510A431343C0F8103504E0042667
:1013900011E0FE2180F8301069780120A040012979
:1013A0000CD00B490860012220460097002311460B
:1013B000019700F042FC3046BDE8FC810449091F5A
:1013C000F0E700009C30002000600040FFE0ECFFF0
:1013D0000C05005010B5FDF705FD0249800601EB34
:1013E000106010BD006000400649084490F93000CC
:1013F000810005480844D0F8101521F00301C0F819
:10140000101570479C300020006000400A490844D5
:1014100090F93000810009480144D1F8100540F0EE
:10142000030040F4F852C1F8102501F5A26100BF95
:1014300000BF00BF086070479C3000200060004083
:1014400001B10121064A104490F93000820005489C
:101450001044D0F8102561F31452C0F810257047DD
:101460009C3000200060004010B5044601F06AFF87
:1014700070B12046FDF7B6FCC0B2FDF781FC2046F6
:10148000FDF7B0FC074A002102EB8000C0F8101500
:101490000549FF20214481F830002046BDE8104076
:1014A00000F0DCBB006000409C3000202DE9F84FCC
:1014B0000427174E00248246A1464FF0010800BFC2
:1014C0008DF800906846FCF705F908FA04F53542F6
:1014D00003D02046FFF710F960B19DF80000FCF73B
:1014E0001DF927B104F10104AE43E4B2E8D1384656
:1014F000BDE8F88F074908FA04F000274A6810434E
:1015000048608AF800409DF80000FCF707F9EEE714
:10151000FF3F0F000822002070B514460D0006465C
:1015200010D07CB1FFF758F970B13046FFF7E4F8FE
:1015300060B1074800EBC600C0F81055C0F814456C
:10154000002070BD0E2070BD072070BD082070BD4A
:1015500000F0014010B50446FFF7E6F868B12046F8
:10156000FFF73AF918B12046FFF7C6F838B1054938
:101570000120A0400860002010BD072010BD0820F9
:1015800010BD000008F5014010B50446FFF7CCF887
:1015900068B12046FFF720F918B12046FFF7ACF8F4
:1015A00038B105490120A0400860002010BD072087
:1015B00010BD082010BD000004F5014038B50546F7
:1015C000FFF70AF998B10B480124AC4004600020F1
:1015D0008DF800006846FCF77DF807484168A14394
:1015E00041609DF80000FCF799F8002038BD072005
:1015F00038BD000008F501400822002038B5054636
:101600000C460846FFF795F8E8B12046FFF780F84A
:10161000B8B12846FCF79CF8A8B100208DF800006E
:101620006846FCF757F8094800EB8400D0F800182A
:101630002943C0F800189DF80000FCF76FF800205F
:1016400038BD082038BD072038BD000000F001403B
:1016500038B505460C460846FFF76BF8E8B120465A
:10166000FFF756F8B8B12846FCF772F8A8B1002089
:101670008DF800006846FCF72DF8094800EB84005F
:10168000D0F80018A943C0F800189DF80000FCF736
:1016900045F8002038BD082038BD072038BD0000BF
:1016A00000F001402DE9F84F04273326002482463C
:1016B000A1464FF0010800BF8DF800906846FCF786
:1016C00009F808FA04F5354203D02046FFF720F860
:1016D00060B19DF80000FCF721F827B104F1010486
:1016E000AE43E4B2E8D13846BDE8F88F064908FABF
:1016F00004F000274A78104348708AF800409DF8AB
:101700000000FCF70BF8EEE70822002010B50446B5
:10171000FFF70FF848B12046FEF7FAFF38B1054A47
:10172000012042F83400002010BD072010BD082021
:1017300010BD000000F0014038B50446FEF7F9FF87
:10174000C8B12046FEF7E4FFB8B10D49012501EB11
:10175000C400456000208DF800006846FBF7BAFF22
:101760000848A5404178A94341709DF80000FBF767
:10177000D5FF002038BD072038BD082038BD000047
:1017800000F00140082200200448017809B18520BA
:1017900070470121017000207047000008220020DE
:1017A0002DE9F05F1F4E054602200C46C6F80803DF
:1017B0001D48DFF87C90002790F82720DFF86C8028
:1017C000B11509F1040A012A10D00221C6F8041348
:1017D000012180F8271045600481C760C9F80050D6
:1017E000CAF80040C8F80070316018E0C2682AB139
:1017F0000220C6F804031120BDE8F09FC560848272
:101800008B46584600F08EFA0028FAD0C8F80070CF
:10181000C9F80050CAF800400220C6F804030020AE
:10182000EAE70000007000407030002000710040C6
:101830002C76004070B5104A05460C4692F82700F9
:10184000012804D002EB4501887D10B105E011208C
:1018500070BD12F8280F401C1070A0798875E079CF
:10186000C8752146284600F023FAE279A179284676
:1018700000F04EFA002070BD7030002010B5104905
:10188000044691F82700012817D001EB4402907D0F
:1018900018B111F8280F401E087000209075D075FF
:1018A00002460146204600F033FA40F2FF72D1436F
:1018B000204600F041F8002010BD112010BD0000AE
:1018C0007030002070B5174A92F826300BB108200E
:1018D00070BD09B110B102E0072070BD1248134B72
:1018E00042F80C1B017819601B1D41781960012416
:1018F00094760021D17611770D4D51606FF0004242
:10190000C5F808230B4A11608178072005F5417559
:10191000FFF7FCFB022028600448F0380460002038
:1019200070BD00007030002084590200F075004046
:1019300000700040047100402DE9F04117460C464C
:101940000546C1EA07401A4E06EB0511C1F81C0511
:101950000021284600F0EEF92346012101EB450263
:10196000144CC907D140226913F5006F1BD00A43FC
:101970002261C6F804030121284600F0DBF96A0061
:101980004FF00041D140A7F5E0632269FF3B05D04D
:101990000A432261C6F80403BDE8F0818A4322614C
:1019A000C6F80803F8E78A432261C6F80803E2E7AD
:1019B00000700040703000200549002091F8271089
:1019C00019B1044A012111607047112070470000CD
:1019D00070300020047000402DE9F04180214FF06C
:1019E000E02201200026C2F880111549144D08316B
:1019F000086042F210744FF48A7700E0641E3846A3
:101A000000F090F908B9002CF8D10E4806606FF08C
:101A10000040C5F808030C4D5FF0000485F827600E
:101A200005EB4400807D10B12046FFF727FF641CC2
:101A3000E4B2082CF4D385F82660BDE8F0810000FC
:101A400000700040007500407030002002684020A7
:101A500000EB8100C0B21044704700680121C160F2
:101A6000704730B54FF4803405688C4013B1C5F829
:101A7000044301E0C5F80843006800EB8100C0F8AA
:101A8000402530BD02684FF4A07000EB810080B2A9
:101A90001044704702684FF480308840C2F8080351
:101AA000704710B54FF4A07202EB8102036892B246
:101AB00000249C5002684FF480308840C2F8040330
:101AC00010BD00000268012111610079034A00EB9A
:101AD000400002EB800001727047000014310020CA
:101AE000016801220A600079034A00EB400002EB22
:101AF000800002210172704714310020F0B40468A4
:101B0000049E40F20115D4F800728D40AF43C4F832
:101B100000720468D4F800521D43C4F800523346E2
:101B2000F0BCFFF79EBF00002DE9F04104460079AC
:101B30000D46234B00EB400103EB8106317A11B1D6
:101B40000820BDE8F0810AB115B104E00720F8E7EC
:101B50001C4901EBC00532606868706000200346D4
:101B60004FF4A07706E000BF226807EB80015350D6
:101B7000401CC0B261798142F6D82068E978000B38
:101B800040B2FFF7C3FA20686978D0F8042561F302
:101B90000102C0F804252068A978D0F8082561F36F
:101BA0000102C0F8082520682978D0F8102561F3D3
:101BB0000302C0F81025012030720020C1E70000A8
:101BC000143100208859020010B503460068000B4C
:101BD00041B201F01F02012090404909890001F142
:101BE000E021C1F8800119684FF0FF30D1F80022E0
:101BF0000024C1F800421968C1F808031846FFF72D
:101C000061FF1879034900EB400001EB800004728A
:101C100010BD00001431002030B541EA4201DDE979
:101C2000034541EA8301800041EA042100F1A0401C
:101C300041EA0541C0F8001730BD30B541EA420124
:101C4000DDE9034541EA8301800041EA042100F116
:101C5000A04041EA0541C0F8001730BD1CB5002185
:101C600000910B4601220191FFF7E7FF1CBD8000A8
:101C700000F5E06000F1A040026822F4403202600A
:101C8000026842EA0141016070470000034908B55B
:101C90000844002101600068009008BD0060004019
:101CA00002494058012800D00020704700600040E1
:101CB00010B50A784B78302402F0030204EA0313CB
:101CC0001A438B784FF4E06404EA03231A43CB7879
:101CD0004FF4805404EA03331A430B794FF4E024A1
:101CE00004EA03431A434B794FF4801404EA035384
:101CF0001A43030105481844C0F818258A79C979A0
:101D0000C0F81415C0F8102510BD00000070004088
:101D1000030103481844C0F81425C0F81015704793
:101D20000070004002494058002800D00120704750
:101D300000700040024619B14020510088407047B1
:101D40008020FAE74058002800D001207047D0F8E2
:101D50000403084000D0012070474058002800D0FC
:101D60000120704710B550B103280CD10220FCF7B8
:101D7000BFFD002807D0BDE81040FBF78FB9BDE8D4
:101D8000104002F079BD10BD704700001FB5044639
:101D900000883A280ED009DC022820D010280DD067
:101DA00011283AD10020FCF7A3FD11E051281AD0E8
